{
  "address": "0xC678C0b6dCB0999de64786F620817b767f70b685",
  "abi": [
    {
      "anonymous": false,
      "inputs": [
        {
          "indexed": false,
          "internalType": "string",
          "name": "token",
          "type": "string"
        },
        {
          "indexed": false,
          "internalType": "int256",
          "name": "score",
          "type": "int256"
        }
      ],
      "name": "SentimentUpdated",
      "type": "event"
    },
    {
      "inputs": [
        {
          "internalType": "string",
          "name": "token",
          "type": "string"
        }
      ],
      "name": "getSentiment",
      "outputs": [
        {
          "internalType": "int256",
          "name": "",
          "type": "int256"
        }
      ],
      "stateMutability": "view",
      "type": "function"
    },
    {
      "inputs": [
        {
          "internalType": "string",
          "name": "",
          "type": "string"
        }
      ],
      "name": "sentimentScores",
      "outputs": [
        {
          "internalType": "int256",
          "name": "",
          "type": "int256"
        }
      ],
      "stateMutability": "view",
      "type": "function"
    },
    {
      "inputs": [
        {
          "internalType": "string",
          "name": "token",
          "type": "string"
        },
        {
          "internalType": "int256",
          "name": "score",
          "type": "int256"
        }
      ],
      "name": "updateSentiment",
      "outputs": [],
      "stateMutability": "nonpayable",
      "type": "function"
    }
  ],
  "transactionHash": "0x6be562f6b5e2fdad41d81bf084ab0ee60a075f9bed6b87f764003b38191042e4",
  "args": [],
  "numDeployments": 1,
  "solcInputHash": "777cbf69824aa5dde9bf5b287a8d1f98",
  "bytecode": "0x608060405234801561001057600080fd5b50610308806100206000396000f3fe608060405234801561001057600080fd5b50600436106100415760003560e01c80630744df68146100465780634d4be4d9146100835780635444f2e514610096575b600080fd5b6100716100543660046101d5565b805160208183018101805160008252928201919093012091525481565b60405190815260200160405180910390f35b6100716100913660046101d5565b6100ab565b6100a96100a4366004610212565b6100d2565b005b600080826040516100bc919061027b565b9081526020016040518091039020549050919050565b806000836040516100e3919061027b565b9081526020016040518091039020819055507f4c04aa4fababedaefa89f4645921bc1509da45f6495d98c3a321aca5e0c7a85f8282604051610126929190610297565b60405180910390a15050565b634e487b7160e01b600052604160045260246000fd5b600082601f83011261015957600080fd5b813567ffffffffffffffff8082111561017457610174610132565b604051601f8301601f19908116603f0116810190828211818310171561019c5761019c610132565b816040528381528660208588010111156101b557600080fd5b836020870160208301376000602085830101528094505050505092915050565b6000602082840312156101e757600080fd5b813567ffffffffffffffff8111156101fe57600080fd5b61020a84828501610148565b949350505050565b6000806040838503121561022557600080fd5b823567ffffffffffffffff81111561023c57600080fd5b61024885828601610148565b95602094909401359450505050565b60005b8381101561027257818101518382015260200161025a565b50506000910152565b6000825161028d818460208701610257565b9190910192915050565b60408152600083518060408401526102b6816060850160208801610257565b602083019390935250601f91909101601f19160160600191905056fea2646970667358221220f1908f69e0c9a67c70456deb62cdebb70b3d54067bd5deca8346016a26cc527e64736f6c63430008140033",
  "devdoc": {
    "details": "Stores aggregated sentiment scores per token pushed from an offchain AI engine.      Scores are integers representing the sentiment * 100 (e.g., +75 = 0.75, -42 = -0.42).      Designed to be minimal and hackathon-ready on Monad Testnet.",
    "events": {
      "SentimentUpdated(string,int256)": {
        "params": {
          "score": "The new sentiment score (scaled by 100, range: -100 to +100)",
          "token": "The token symbol (e.g., \"MONAD\", \"BTC\", \"ETH\")"
        }
      }
    },
    "kind": "dev",
    "methods": {
      "getSentiment(string)": {
        "params": {
          "token": "The token symbol"
        },
        "returns": {
          "_0": "The sentiment score (scaled by 100)"
        }
      },
      "updateSentiment(string,int256)": {
        "params": {
          "score": "The sentiment score (scaled by 100)",
          "token": "The token symbol"
        }
      }
    },
    "title": "SentimentOracle",
    "version": 1
  },
  "userdoc": {
    "events": {
      "SentimentUpdated(string,int256)": {
        "notice": "Emitted when a sentiment score is updated"
      }
    },
    "kind": "user",
    "methods": {
      "getSentiment(string)": {
        "notice": "Read the latest sentiment score for a given token"
      },
      "sentimentScores(string)": {
        "notice": "Mapping from token symbol to its latest sentiment score (scaled by 100)"
      },
      "updateSentiment(string,int256)": {
        "notice": "Update the sentiment score for a given token"
      }
    },
    "notice": "AI-Powered Onchain Sentiment Oracle for SentimentFi",
    "version": 1
  },
  "storageLayout": {
    "storage": [
      {
        "astId": 7,
        "contract": "contracts/SentimentOracle.sol:SentimentOracle",
        "label": "sentimentScores",
        "offset": 0,
        "slot": "0",
        "type": "t_mapping(t_string_memory_ptr,t_int256)"
      }
    ],
    "types": {
      "t_int256": {
        "encoding": "inplace",
        "label": "int256",
        "numberOfBytes": "32"
      },
      "t_mapping(t_string_memory_ptr,t_int256)": {
        "encoding": "mapping",
        "key": "t_string_memory_ptr",
        "label": "mapping(string => int256)",
        "numberOfBytes": "32",
        "value": "t_int256"
      },
      "t_string_memory_ptr": {
        "encoding": "bytes",
        "label": "string",
        "numberOfBytes": "32"
      }
    }
  }
}